:020000040800F2
:1000000080060020C50000087F0C00087D0C000859
:1000100000000000000000000000000000000000E0
:10002000000000000000000000000000C70C0008F5
:100030000000000000000000C50C0008C90C00080A
:10004000D700000800000000D7000008D700000813
:10005000D7000008D7000008D7000008D700000824
:1000600000000000D7000008D7000008D7000008F3
:10007000D7000008D7000008D700000800000000E3
:10008000D70000080000000000000000D7000008B2
:1000900000000000D7000008D7000008D7000008C3
:1000A00000000000D700000800000000D700000892
:1000B0000348854600F058F800480047F51100084D
:1000C000800600200448804704480047FEE7FEE71A
:1000D000FEE7FEE7FEE7FEE7410D0008B10000087D
:1000E00030B50B46014600202022012409E00D46D0
:1000F000D5409D4205D31D469540491B2546954058
:1001000040191546521E002DF1DC30BD03460B434D
:100110009B0703D009E008C9121F08C0042AFAD2BD
:1001200003E00B780370401C491C521EF9D2704743
:1001300030B505462A460B4610781C78521C5B1CCD
:10014000002801D0A042F7D0002C03D0002802D014
:100150006D1CEFE7284630BD421C0178401C002989
:10016000FBD1801A70470000064C0125064E05E0C1
:10017000E36807CC2B430C3C98471034B442F7D3C8
:10018000FFF79AFFD0160008F016000831B500F00E
:1001900017F9044600F014F90099001B8842F9D3BE
:1001A00038BD0000F0B5002358E001229A40144603
:1001B0000A4052D006685F000325BD40AE43AC46FE
:1001C0000660DD08AD002D182E6AAE465D07EF0E05
:1001D0000F25BD40AE4375462E6286686546AE4328
:1001E00086604568A5434560C4686546AC43C46005
:1001F0009D081C4CAD002D19AF689C07260F0F24DD
:10020000B440A4463C400927FF06B84201D100276C
:100210000FE0154FB84201D101270AE0134FB84251
:1002200001D1022705E0124FB84201D1032700E0B7
:100230000527B740A74210D1AE686446A643AE601A
:100240000C4C256895432560656895436560A568F5
:100250009543A560E5689543E5605B1C0A46DA4076
:10026000A3D1F0BD00000140000400480008004890
:10027000000C004800040140F8B500238DE0012483
:100280009C40A44622407DD04C68022C01D0122C08
:100290000CD1DC08A40027183C6A5D07ED0E0F2680
:1002A000AE40B4430E69AE4026433E6205685E0030
:1002B0000324B4400F79A543BF07BF0FB7402F43B6
:1002C00007604D68012D05D0022D03D0112D01D0FE
:1002D000122D0ED18568CF68A543B7402F438760A4
:1002E00047686546AF430D79ED06ED0F9D403D43F0
:1002F0004560C568A5438C68B4402C43C4604C6815
:10030000E40049D5284CA56901263543A561A469B7
:100310009D0834400094254CAD002F19BC689D0702
:100320002E0F0F25B540AC430925ED06A84201D19B
:1003300000250FE01E4DA84201D101250AE01D4D08
:10034000A84201D1022505E01B4DA84201D1032599
:1003500000E00525B5402543BD60184C25684E6872
:100360009543F60300D51543256065684E689543AF
:10037000B60300D515436560A5684E689543F6023F
:1003800002D500E008E01543A560E5684E68954396
:10039000B60200D51543E5605B1C0A681446DC40D4
:1003A00000D06CE7F8BD00000010024000000140E2
:1003B0000004004800080048000C00480004014008
:1003C00001480068704700000400002002480168EE
:1003D000491C0160704700000400002010B5064869
:1003E0000168102211430160002000F007F800F0BE
:1003F00017F8002010BD00000020024010B5044690
:1004000000F0C4F87D21C900FFF76AFE00F0C8FAC9
:1004100000222146501E00F01FF8002010BD0000F1
:1004200008B50C488169012211438161806910403F
:10043000002200901146501F00F00EF800221146D5
:10044000901E00F009F800221146501E00F004F83A
:1004500008BD00000010024010B500F011FC10BDF6
:10046000F8B5054644480E460068C007C00FB042C4
:100470000AD24148016849084900314301600068D7
:10048000C007C00FB0425CD128783C4C800705D52E
:100490006068F0218843A968084360602878C00735
:1004A0003FD06868012813D02168022813D089073B
:1004B000002946DA61688908890001436160FFF715
:1004C0007FFF6968074601290DD0022917D024E073
:1004D00021688903ECE78901EAE7FFF771FFC11B97
:1004E0002748814217D860680007800F0128F4D19F
:1004F00017E0FFF765FFC11B214881420BD86068F8
:100500000007800F0228F4D10BE0FFF759FFC11B51
:100510001B48814201D90320F8BD60680007800FA5
:10052000F3D115480168C907C90FB1420BD9016859
:1005300049084900314301600068C007C00FB0425C
:1005400001D00120F8BD2878400706D56068072152
:1005500009028843E9680843606000F02DF861688B
:10056000084A0906090F515CC84007490860002085
:10057000FFF744FF0020F8BD0020024000100240B9
:1005800088130000281600080000002001480068B9
:1005900070470000000000200448054900684968D1
:1005A000044A4905490F515CC840704700000020CB
:1005B000001002403816000810B512A30FCB88B007
:1005C0006C460FC413A30FCB0FC416494A680C2006
:1005D000134603401448042B0FD0082B0DD193026F
:1005E0001B0F6C46E45CC96A04AB0907090F595C30
:1005F000D20304D5FFF774FD604308B010BD0B486B
:100600006043FAE702030405060708090A0B0C0D0C
:100610000E0F10100102030405060708090A0B0C4F
:100620000D0E0F100010024000127A0000093D006C
:10063000FEB504460078D04DC00747D06868000773
:10064000800F012807D068680007800F022809D1B1
:100650006868C00306D52868800337D5606800281D
:100660007ED033E0012062680004012A11D08100AD
:10067000002A01D0052A10D02A6882432A602868FF
:10068000884328606068002814D0FFF799FE06466A
:100690000CE0296801432960F4E72A680A432A60CC
:1006A000F7E7FFF78DFE801B64286FD8286880036A
:1006B000F7D50BE0FFF784FE064604E0FFF780FE67
:1006C000801B6428F1D828688003F7D4207801269D
:1006D000800700283BDA68680007800F07D0686849
:1006E0000007800F022809D16868C00306D4286873
:1006F000800715D5E068012832D111E0E0680028B4
:10070000286815D030432860FFF75AFE074604E0FA
:10071000FFF756FEC01B0228C7D828688007F7D508
:100720002868F82188432169C900084328600EE041
:10073000400840002860FFF743FE074604E0FFF74B
:100740003FFEC01B0228B0D828688007F7D4207865
:10075000000724D5E0690028686A10D0304300E023
:1007600008E16862FFF72CFE074604E0FFF728FE69
:10077000C01B022899D8686A8007F7D50FE04008A7
:1007800040006862FFF71CFE074605E09DE0FFF7AA
:1007900017FEC01B022888D8686A8007F7D4207823
:1007A00004274007002860DA00200190E869C000B3
:1007B00008D4E969B8060143E961E969014001200B
:1007C000009101906D480168C90511D40168821536
:1007D00011430160FFF7F4FD009005E0FFF7F0FD25
:1007E0000099401A642870D864480068C005F5D59F
:1007F000A06801280AD0002801D0052810D0286A56
:10080000400840002862286AB84301E0286A304363
:100810002862A068002812D0FFF7D2FD00900AE0FD
:10082000286A38432862F1E7FFF7CAFD0099411AA8
:100830005348814249D8286A8007F5D50DE0FFF773
:10084000BFFD009006E0FFF7BBFD0099411A4C4840
:1008500081423AD8286A8007F5D40198002804D04C
:10086000E969012000078143E9612078C00635D598
:10087000606901280CD0401D686B23D03843686341
:10088000686B400840006863FFF79AFD064622E067
:10089000686B38436863686B30436863FFF790FDAB
:1008A000064604E0FFF78CFD801B02285BD8686BCE
:1008B0008007F7D5686BF8218843A169C900084310
:1008C00068630BE0B8436863F4E74CE0FFF778FD3A
:1008D000801B022847D8686B8007F7D4206A00285D
:1008E00046D069680907890F022943D001263606D8
:1008F0000228286805D0B0432860FFF761FD044650
:1009000033E0B0432860FFF75BFD074604E0FFF7E4
:1009100057FDC01B022826D828688001F7D4E86A52
:10092000E16A000900010843E862616AA06A0843BD
:1009300069683D2212049143084368602868304387
:100940002860FFF73DFD044604E0FFF739FD001B7A
:10095000022808D828688001F7D509E0FFF730FDA4
:10096000001B022801D90320FEBD28688001F5D4B0
:100970000020FEBD0120FEBD0010024000700040BE
:1009800088130000042204490428086902D0904317
:10099000086170471043FBE700E000E0704700008B
:1009A000094910B5401E884201D9012010BD074CED
:1009B00060610321081F00F063F90020A061072097
:1009C0002061002010BD0000FFFFFF0000E000E0FC
:1009D00010B5FFF7E3FF10BD70B5040019D0242156
:1009E0002046603006464172206801684908490087
:1009F00001602068002505602068456020688560EA
:100A0000204600F03FF8E5667572B5723572002039
:100A100070BD012070BD70B5040005D0254660355D
:100A2000687A002802D006E0012070BD00202872FC
:100A3000204600F03DF824206872206801684908CB
:100A400049000160204600F017FA0128EDD0606AE5
:100A5000002802D0204600F0A1F920684168012258
:100A6000D2029143416020688168082291438160ED
:100A700020680168012211430160204600F0F3F96B
:100A800070BD000010B50068074988420AD10748C8
:100A90008169012292039143816109200C21C006E2
:100AA000FFF780FB10BD000000380140001002403D
:100AB00000B500680E4987B0884216D10D4882699A
:100AC000012189030A4382618069084005900C2056
:100AD00000900220019001210320039002910491D3
:100AE00009206946C006FFF7C7FB07B000BD00003C
:100AF0000038014000100240FFB507460446603749
:100B0000B87A81B00E4620285CD1002E0BD0002A86
:100B100009D00121A0680903884207D12369002B6D
:100B200004D1F30702D0012005B0F0BD3B7A012BC0
:100B300048D001233B720023E3662223BB72254683
:100B400040352A836A8301221203FF21904204D197
:100B50002069002817D11C4805E0002804D120692D
:100B6000002810D07F20A883A88B0090688B0022DB
:100B7000401E688320212046049B00F007FA0028CD
:100B800003D00320D0E7A983EEE70120A16800038A
:100B9000814202D1206900280DD02068818C009804
:100BA00001403170761C688B0028DFD12020B8729C
:100BB00000203872B8E72068818C009801403180AD
:100BC000B61CF0E70220AFE7FF010000FFB50646C4
:100BD00004466036707A81B00D4620284CD1002D35
:100BE0000AD0002A08D0A168C001814207D121693A
:100BF000002904D1E90702D0012005B0F0BD317A07
:100C0000012939D0012131720021E166212171725F
:100C1000274640373A827A82788A0022401E7882BC
:100C200080212046049B00F0B1F9002816D1012054
:100C3000A1680003814202D12069002810D02168F8
:100C4000287808856D1C788A0028E5D1002240218B
:100C50002046049B00F09AF9002808D00320CCE736
:100C600028882168C005C00D0885AD1CEBE7202051
:100C7000707200203072C0E70220BEE7FEE77047C6
:100C80008307FF22DB0E9A408907090E994000284E
:100C90000BDA0007000F0838830808489B00181873
:100CA000C36993430B43C3617047830804489B00A7
:100CB0001B181868904308431860704700ED00E067
:100CC00000E400E07047704710B5FFF77FFBFFF7C7
:100CD0007FFE10BD10B590B001200390102004904D
:100CE0000224002005210094C90409900B90089467
:100CF0000A916846FFF79CFC002800D0FEE7072019
:100D00000C9080200E90052000020F900D94012180
:100D10000CA8FFF7A5FB002800D0FEE7FFF736FC84
:100D20007D21C900FFF7DCF9FFF73AFE0420FFF749
:100D300029FE00221146501EFFF78EFB10B010BD99
:100D4000134801680122114301604168114A1140B2
:100D500041600168104A114001600168012292045B
:100D60009143016041683F22120491434160C16A8E
:100D700009090901C162016BFF2214329143016329
:100D8000416B4908490041630021816070470000C0
:100D9000001002400CB8FF08FFFFF6FE10B5818C72
:100DA000C90707D001684A6801235B049A43836A34
:100DB0001A434A60818C890707D501684A68012374
:100DC0001B049A43C36A1A434A60818C490707D5BA
:100DD00001684A6801239B049A43036B1A434A60E3
:100DE000818C090707D501684A680123DB039A4310
:100DF000436B1A434A60818CC90607D50268916823
:100E000001231B039943836B19439160818C8906ED
:100E100007D501688A6801235B039A43C36B1A43B1
:100E20008A60818C490612D503685A680121090538
:100E3000046C8A4322435A60026C8A4207D10268DA
:100E4000516803235B059943436C19435160818CBE
:100E5000090607D501684A680123DB04806C9A43C0
:100E600002434A6010BD0021C166202260304272F8
:100E70008272017208467047F8B504462369A26879
:100E8000E6691A43636910213343002026681A4338
:100E900033680546394F3B401343336023685A6833
:100EA00003263603B243E66832435A60236AA269D6
:100EB00026681A43B3680B273F02BB431343B36052
:100EC0002F4A126B9207920F06D0012A08D0022AED
:100ED00008D0032A07D101E0002104E0022102E04A
:100EE000042100E008210122E369D203934224D1C6
:100EF00000290CD002290DD0042913D0082917D0BD
:100F00000125010909010007400F084332E0FFF7FE
:100F100043FB09E061681B4A48088018FFF7E0F8C6
:100F200080B2EEE7FFF748FB616840004A08F4E74B
:100F30006168012248081204EFE7002908D002295D
:100F400009D004290BD008290ED001252846F8BD68
:100F5000FFF722FB05E061680B4A480806E0FFF74F
:100F60002BFB61684A0801E0616848088018FFF7B8
:100F7000B7F880B22168C860E8E70000F369FFFFB6
:100F8000001002400024F40000127A00F8B51E465A
:100F900015460F460446FFF713FA294625466035E5
:100FA000009000291AD043E0701C17D0002E05D005
:100FB000FFF706FA0099401AB0420FD9206802687C
:100FC00080218A43026021680A68202082430A60E7
:100FD00021680B68C20093430B601EE02068C16962
:100FE00038468843E0D128E0701C21D0002E05D07F
:100FF000FFF7E6F90099401AB04219D92068016854
:1010000080229143016021680A68202082430A609F
:1010100021680A68C3009A430A6021688A685208F6
:1010200052008A606872A872002028720320F8BDFE
:101030002068C16938468843D6D00020F8BD00003A
:101040000FB410B504A9074B02AA039800F01CF8CE
:10105000044602A9002000F0BFF8204610BC08BCDE
:1010600004B01847D911000802E008C8121F08C1CF
:10107000002AFAD170477047002001E001C1121F19
:10108000002AFBD170470000FFB58DB00446002553
:1010900006E025280AD0109A0F999047641C6D1C11
:1010A00020780028F5D1284611B0F0BD0027012195
:1010B000484A009700E00743641C23780846203B19
:1010C00098401042F7D120782E2817D104200743EA
:1010D0006078641C2A280CD10E98641C02C8009108
:1010E0000E900BE000990A22514330394018641CDD
:1010F00000902078014630390929F3D9207800285A
:10110000D1D0642808D0692806D075281ED0109A3E
:101110000F9990476D1C5BE00A200E99019001C960
:101120000E91002802DA40422D2102E0390504D553
:101130002B216A461172012103E0F90704D0202116
:10114000F7E70BAE0B910DE00021FAE70A200E99AC
:10115000019001C90E91F7E70199FEF7C1FF303107
:10116000761E31700028F7D103A8801B2030019033
:10117000780701D5009801E001200090019988428C
:1011800001DD401A00E000200027009006E002A8E0
:10119000109AC05D0F9990476D1C7F1C0B98874279
:1011A000F5DB04E0109A30200F9990476D1C0099F0
:1011B000481E00900029F5DC05E03078109A761C76
:1011C0000F9990476D1C0199481E01900029F4DC8D
:1011D000641C65E7092801000A68531C0B60107045
:1011E00070470022134601E08354521C8A42FBDB05
:1011F00070470000AAB0FFF7F1F8FFF76BFD9548C4
:101200004269012149040A43426142690A4000924D
:1012100043694A0013434361436913400093036BDE
:1012200003242343036383690B43836143690B43B3
:1012300043614169114341618169C2141143816174
:101240008548816A012211438162FF21F431C16224
:101250004163824CA16930221143A161016A0122DC
:10126000114301627C4940314968D20311437A4AF3
:10127000403251600168012211430160A06A0821D7
:101280000843A0627648E0626063A06930210843A9
:10129000A061206A10432062704840304068D1034A
:1012A00008436E49403148602068012108432060AE
:1012B000C82000F055F90546C82000F051F901900A
:1012C0006949684808600846FFF786FBE1206649DF
:1012D0004002486000208860C86008610C204861B6
:1012E0000846FFF798FB6149600508606048C169DE
:1012F0000902090A42071143C1612069FE21084021
:1013000020615CA000901A2168460172102009211A
:10131000C90648617D24E40022465AA15AA000F083
:1013200055F9224657A15AA000F050F9E60032467E
:1013300054A158A000F04AF932465CA160A000F028
:1013400045F9624B0A2262A14748FFF73FFC5F4B19
:101350000A2262A14448FFF739FC5C4B0B2262A1D0
:101360004148FFF733FC594A46A162A000F02EF92C
:10137000564A44A162A000F029F9544A41A168A04C
:1013800000F024F9302269491BA8FEF7BFFE602255
:10139000674903A8FEF7BAFE664F002600202E54C8
:1013A000401CC828FBDB7D231B012D221BA92E48D6
:1013B000FFF70CFC3B46C82229462B48FFF79CFB55
:1013C0005DA12846FEF7B4FE00283ED02046FEF779
:1013D000DDFE3E4B0C225AA12348FFF7F7FB3B46AC
:1013E000042221480199FFF787FB58A10198FEF7D5
:1013F0009FFE0028D2D003A8FEF7AEFE82B2334B88
:1014000003A91948FFF7E2FB0098FEF7A5FE024684
:101410004FA127A8FFF714FE27A8FEF79DFE82B272
:101420002A4B27A91048FFF7D1FB0098FEF794FE3E
:1014300082B2264B0C480099FFF7C8FB234B0222CF
:1014400002A90948FFF7C2FBA8E743A12846FEF717
:101450006FFEA3E70010024000440140002C014051
:101460005FEA0000003801401000002000E100E0C9
:1014700004ED00E073616C616D2C657368676861F1
:101480006D0000004F4B0000415445300A00000041
:1014900041540A0041542B434F50533D342C322CBD
:1014A000223433323335220A000000002B434F50E0
:1014B000533A20312C322C2234333233352200007F
:1014C00041542B434F50533F00000000881300004D
:1014D00041542B4350494E3F0A00000041542B43D6
:1014E0005245473F0A00000041542B4347414354B3
:1014F0003F0A000041542B434D45453D310A000051
:1015000041542B435354543D22626C756576696196
:101510002E6D6F7669737461722E6573220A0000F6
:1015200041542B43494943520A0000004016000829
:1015300070160008B80B0000414C52454144590058
:1015400041542B43495053454E440A003E0000008D
:1015500025640D0A0D0A00002B434D4500000000D4
:10156000F0B50B30C108C900144F0026144A0FE033
:1015700003688B420BD38B4205D95C1A431845682C
:1015800030C3083B00E04368136002C004E0021D62
:1015900010680028ECD13046002803D138680028B4
:1015A00001D00020F0BD064A06481060064A121A13
:1015B000D208D20044C001203860D7E70C000020D8
:1015C00008000020840000208002002070B59AB03E
:1015D0000D460646124C1BE064216846FFF701FEEB
:1015E0003046FEF7B9FD82B21E2331460D48FFF7A3
:1015F000EDFA2346642269460A48FFF77DFA6846F9
:10160000FEF7AAFD82B21E2369460648FFF7DEFAFE
:1016100069462846FEF78CFD0028DDD01AB070BD63
:1016200088130000100000200000000000000000EF
:101630000102030406070809000000000102030478
:1016400041542B43495053544152543D225443502A
:10165000222C227777772E66646C692E6972222C91
:10166000223830220A0000000000000000000000C4
:10167000504F5354202F696E707574322E706870FD
:1016800020485454502F312E310D0A486F73743A4C
:10169000207777772E66646C692E69720D0A436F26
:1016A0006E74656E742D547970653A6170706C69F2
:1016B000636174696F6E2F6A736F6E3B0D0A436FBF
:1016C0006E74656E742D4C656E6774683A00000028
:1016D000F01600080000002010000000681000084C
:1016E00000170008100000207006000078100008A5
:1016F00000127A000000000000000000000000005E
:04000005080000B13E
:00000001FF
